{
  "_format": "hh-sol-artifact-1",
  "contractName": "MarginAccount",
  "sourceName": "contracts/MarginAccount.sol",
  "abi": [
    {
      "inputs": [
        {
          "internalType": "address",
          "name": "_router",
          "type": "address"
        }
      ],
      "stateMutability": "nonpayable",
      "type": "constructor"
    },
    {
      "inputs": [
        {
          "internalType": "bytes32",
          "name": "",
          "type": "bytes32"
        }
      ],
      "name": "balances",
      "outputs": [
        {
          "internalType": "uint256",
          "name": "",
          "type": "uint256"
        }
      ],
      "stateMutability": "view",
      "type": "function"
    },
    {
      "inputs": [
        {
          "internalType": "address",
          "name": "_user",
          "type": "address"
        },
        {
          "internalType": "address",
          "name": "_token",
          "type": "address"
        },
        {
          "internalType": "uint256",
          "name": "_amount",
          "type": "uint256"
        },
        {
          "internalType": "bool",
          "name": "_useMargin",
          "type": "bool"
        }
      ],
      "name": "creditUser",
      "outputs": [
        {
          "internalType": "bool",
          "name": "",
          "type": "bool"
        }
      ],
      "stateMutability": "nonpayable",
      "type": "function"
    },
    {
      "inputs": [
        {
          "internalType": "bytes",
          "name": "_encodedData",
          "type": "bytes"
        }
      ],
      "name": "creditUsersEncoded",
      "outputs": [
        {
          "internalType": "bool",
          "name": "",
          "type": "bool"
        }
      ],
      "stateMutability": "nonpayable",
      "type": "function"
    },
    {
      "inputs": [
        {
          "internalType": "address",
          "name": "_user",
          "type": "address"
        },
        {
          "internalType": "address",
          "name": "_token",
          "type": "address"
        },
        {
          "internalType": "uint256",
          "name": "_amount",
          "type": "uint256"
        }
      ],
      "name": "debitUser",
      "outputs": [
        {
          "internalType": "bool",
          "name": "",
          "type": "bool"
        }
      ],
      "stateMutability": "nonpayable",
      "type": "function"
    },
    {
      "inputs": [
        {
          "internalType": "address",
          "name": "_user",
          "type": "address"
        },
        {
          "internalType": "address",
          "name": "_token",
          "type": "address"
        },
        {
          "internalType": "uint256",
          "name": "_amount",
          "type": "uint256"
        }
      ],
      "name": "deposit",
      "outputs": [],
      "stateMutability": "payable",
      "type": "function"
    },
    {
      "inputs": [
        {
          "internalType": "address",
          "name": "_user",
          "type": "address"
        },
        {
          "internalType": "address",
          "name": "_token",
          "type": "address"
        }
      ],
      "name": "getBalance",
      "outputs": [
        {
          "internalType": "uint256",
          "name": "",
          "type": "uint256"
        }
      ],
      "stateMutability": "view",
      "type": "function"
    },
    {
      "inputs": [
        {
          "internalType": "address",
          "name": "_marketAddress",
          "type": "address"
        }
      ],
      "name": "updateMarkets",
      "outputs": [],
      "stateMutability": "nonpayable",
      "type": "function"
    },
    {
      "inputs": [
        {
          "internalType": "address",
          "name": "",
          "type": "address"
        }
      ],
      "name": "verifiedMarket",
      "outputs": [
        {
          "internalType": "bool",
          "name": "",
          "type": "bool"
        }
      ],
      "stateMutability": "view",
      "type": "function"
    },
    {
      "inputs": [
        {
          "internalType": "uint256",
          "name": "_amount",
          "type": "uint256"
        },
        {
          "internalType": "address",
          "name": "_token",
          "type": "address"
        }
      ],
      "name": "withdraw",
      "outputs": [],
      "stateMutability": "nonpayable",
      "type": "function"
    }
  ],
  "bytecode": "0x60a060405234801561001057600080fd5b50604051610fa0380380610fa083398101604081905261002f91610040565b6001600160a01b0316608052610070565b60006020828403121561005257600080fd5b81516001600160a01b038116811461006957600080fd5b9392505050565b608051610f1561008b60003960006103ec0152610f156000f3fe6080604052600436106100955760003560e01c80636f5b601e116100695780638340f5491161004e5780638340f549146101815780638909aa3f14610194578063d4fac45d146101cf57600080fd5b80636f5b601e1461014157806375eab98e1461016157600080fd5b8062f714ce1461009a57806301aef349146100bc5780635f71a07c146100dc5780636c13925214610121575b600080fd5b3480156100a657600080fd5b506100ba6100b5366004610c94565b6101ef565b005b3480156100c857600080fd5b506100ba6100d7366004610cc4565b6103e1565b3480156100e857600080fd5b5061010c6100f7366004610cc4565b60016020526000908152604090205460ff1681565b60405190151581526020015b60405180910390f35b34801561012d57600080fd5b5061010c61013c366004610ce8565b6104a6565b34801561014d57600080fd5b5061010c61015c366004610d29565b61067f565b34801561016d57600080fd5b5061010c61017c366004610da9565b61085e565b6100ba61018f366004610ce8565b6109e4565b3480156101a057600080fd5b506101c16101af366004610dfc565b60006020819052908152604090205481565b604051908152602001610118565b3480156101db57600080fd5b506101c16101ea366004610e15565b610c11565b60008061024133846040516bffffffffffffffffffffffff19606084811b8216602084015283901b16603482015260009060480160405160208183030381529060405280519060200120905092915050565b8152602001908152602001600020548211156102a45760405162461bcd60e51b815260206004820152601460248201527f496e73756666696369656e742062616c616e636500000000000000000000000060448201526064015b60405180910390fd5b816000806102f733856040516bffffffffffffffffffffffff19606084811b8216602084015283901b16603482015260009060480160405160208183030381529060405280519060200120905092915050565b815260200190815260200160002060008282546103149190610e72565b909155505073eeeeeeeeeeeeeeeeeeeeeeeeeeeeeeeeeeeeeeed196001600160a01b0382160161037057604051339083156108fc029084906000818181858888f1935050505015801561036b573d6000803e3d6000fd5b505050565b60405163a9059cbb60e01b8152336004820152602481018390526001600160a01b0382169063a9059cbb906044016020604051808303816000875af11580156103bd573d6000803e3d6000fd5b505050506040513d601f19601f8201168201806040525081019061036b9190610e85565b336001600160a01b037f0000000000000000000000000000000000000000000000000000000000000000161461047f5760405162461bcd60e51b815260206004820152602d60248201527f4d617267696e4163636f756e743a204f6e6c7920726f757465722063616e207560448201527f7064617465206d61726b65747300000000000000000000000000000000000000606482015260840161029b565b6001600160a01b03166000908152600160208190526040909120805460ff19169091179055565b3360009081526001602052604081205460ff1661052b5760405162461bcd60e51b815260206004820152603560248201527f4d617267696e4163636f756e743a204f6e6c79207665726966696564206d617260448201527f6b6574732063616e206372656469742075736572730000000000000000000000606482015260840161029b565b8160008061057e87876040516bffffffffffffffffffffffff19606084811b8216602084015283901b16603482015260009060480160405160208183030381529060405280519060200120905092915050565b81526020019081526020016000205410156106005760405162461bcd60e51b8152602060048201526024808201527f4d617267696e4163636f69756e743a20496e73756666696369656e742042616c60448201527f616e636500000000000000000000000000000000000000000000000000000000606482015260840161029b565b8160008061065387876040516bffffffffffffffffffffffff19606084811b8216602084015283901b16603482015260009060480160405160208183030381529060405280519060200120905092915050565b815260200190815260200160002060008282546106709190610e72565b90915550600195945050505050565b3360009081526001602052604081205460ff166107045760405162461bcd60e51b815260206004820152603560248201527f4d617267696e4163636f756e743a204f6e6c79207665726966696564206d617260448201527f6b6574732063616e206372656469742075736572730000000000000000000000606482015260840161029b565b60005b82811015610852576000808080878588610722826080610ea2565b9261072f93929190610eb5565b81019061073c9190610da9565b93509350935093506080856107519190610ea2565b945080156107d457816000806107ac87876040516bffffffffffffffffffffffff19606084811b8216602084015283901b16603482015260009060480160405160208183030381529060405280519060200120905092915050565b815260200190815260200160002060008282546107c99190610ea2565b909155506108499050565b60405163a9059cbb60e01b81526001600160a01b0385811660048301526024820184905284169063a9059cbb906044016020604051808303816000875af1158015610823573d6000803e3d6000fd5b505050506040513d601f19601f820116820180604052508101906108479190610e85565b505b50505050610707565b60019150505b92915050565b3360009081526001602052604081205460ff166108e35760405162461bcd60e51b815260206004820152603560248201527f4d617267696e4163636f756e743a204f6e6c79207665726966696564206d617260448201527f6b6574732063616e206372656469742075736572730000000000000000000000606482015260840161029b565b8115610964578260008061093c88886040516bffffffffffffffffffffffff19606084811b8216602084015283901b16603482015260009060480160405160208183030381529060405280519060200120905092915050565b815260200190815260200160002060008282546109599190610ea2565b909155506109d99050565b60405163a9059cbb60e01b81526001600160a01b0386811660048301526024820185905285169063a9059cbb906044016020604051808303816000875af11580156109b3573d6000803e3d6000fd5b505050506040513d601f19601f820116820180604052508101906109d79190610e85565b505b506001949350505050565b73eeeeeeeeeeeeeeeeeeeeeeeeeeeeeeeeeeeeeeed196001600160a01b03831601610b0657803414610a7e5760405162461bcd60e51b815260206004820152602860248201527f4d617267696e4163636f756e743a20616d6f756e7420616e642076616c75652060448201527f6d69736d61746368000000000000000000000000000000000000000000000000606482015260840161029b565b604080516bffffffffffffffffffffffff19606086901b166020808301919091527feeeeeeeeeeeeeeeeeeeeeeeeeeeeeeeeeeeeeeee000000000000000000000000603483015282518083036028018152604890920183528151918101919091206000908152908190529081208054839290610afb908490610ea2565b9091555061036b9050565b6040517f23b872dd000000000000000000000000000000000000000000000000000000008152336004820152306024820152604481018290526001600160a01b038316906323b872dd906064016020604051808303816000875af1158015610b72573d6000803e3d6000fd5b505050506040513d601f19601f82011682018060405250810190610b969190610e85565b5080600080610bea86866040516bffffffffffffffffffffffff19606084811b8216602084015283901b16603482015260009060480160405160208183030381529060405280519060200120905092915050565b81526020019081526020016000206000828254610c079190610ea2565b9091555050505050565b6000806000610c6585856040516bffffffffffffffffffffffff19606084811b8216602084015283901b16603482015260009060480160405160208183030381529060405280519060200120905092915050565b815260200190815260200160002054905092915050565b6001600160a01b0381168114610c9157600080fd5b50565b60008060408385031215610ca757600080fd5b823591506020830135610cb981610c7c565b809150509250929050565b600060208284031215610cd657600080fd5b8135610ce181610c7c565b9392505050565b600080600060608486031215610cfd57600080fd5b8335610d0881610c7c565b92506020840135610d1881610c7c565b929592945050506040919091013590565b60008060208385031215610d3c57600080fd5b823567ffffffffffffffff80821115610d5457600080fd5b818501915085601f830112610d6857600080fd5b813581811115610d7757600080fd5b866020828501011115610d8957600080fd5b60209290920196919550909350505050565b8015158114610c9157600080fd5b60008060008060808587031215610dbf57600080fd5b8435610dca81610c7c565b93506020850135610dda81610c7c565b9250604085013591506060850135610df181610d9b565b939692955090935050565b600060208284031215610e0e57600080fd5b5035919050565b60008060408385031215610e2857600080fd5b8235610e3381610c7c565b91506020830135610cb981610c7c565b7f4e487b7100000000000000000000000000000000000000000000000000000000600052601160045260246000fd5b8181038181111561085857610858610e43565b600060208284031215610e9757600080fd5b8151610ce181610d9b565b8082018082111561085857610858610e43565b60008085851115610ec557600080fd5b83861115610ed257600080fd5b505082019391909203915056fea2646970667358221220c1e285ce186f02bcf495db71f55b0394b027502829a45004de1d6f5cd394cc1464736f6c63430008110033",
  "linkReferences": {},
  "deployedLinkReferences": {}
}